:100000000C942A000C941D020C943C000C943C00AF
:100010000C943C000C943C000C943C000C943C0070
:100020000C943C000C943C000C943C000C943C0060
:100030000C943C000C943C000C943C000C943C0050
:100040000C943C000C943C000C943C000C943C0040
:100050000C943C0011241FBECFE5D4E0DEBFCDBF21
:1000600020E0A0E6B0E001C01D92A836B207E1F79B
:100070000E943E000C945F040C940000CF93DF9329
:10008000CDB7DEB7E0970FB6F894DEBF0FBECDBF99
:1000900088EC90E0909367008093660088EB91E095
:1000A000909365008093640087E390E020E8FC0172
:1000B000208381E390E028E4FC01208382E390E048
:1000C0002FEFFC0120838BE590E02BE530E0F90178
:1000D00020812064FC01208385E590E025E530E067
:1000E000F90120812160FC0120838FE490E0FC0174
:1000F00010821A821982789482E390E022E330E041
:10010000F90120812260FC01208380E090E0A0E2E0
:10011000B1E48F839887A987BA872BEA3AEA4AEA3B
:1001200050E46F81788589859A850E94F203DC010D
:10013000CB018B879C87AD87BE8720E030E040E80D
:1001400050E46F81788589859A850E94F203DC01ED
:10015000CB018F87988BA98BBA8B20E030E040E8E9
:100160005FE36B857C858D859E850E949502882343
:100170001CF481E08B8BB2C020E03FEF4FE757E4E7
:100180006F85788989899A890E94ED0318160CF089
:100190007BC020E030E04AE754E46F8178858985B0
:1001A0009A850E949A02DC01CB018C8B9D8BAE8BD1
:1001B000BF8B20E030E04AE755E46C897D898E8969
:1001C0009F890E94F203DC01CB01888F998FAA8F4F
:1001D000BB8F20E030E040E85FE3688D798D8A8D49
:1001E0009B8D0E94950288232CF481E090E09D8FE6
:1001F0008C8F3FC020E03FEF4FE757E4688D798D4B
:100200008A8D9B8D0E94ED0318164CF520E030E09E
:1002100040E251E46C897D898E899F890E94F203B6
:10022000DC01CB01BC01CD010E940C03DC01CB0140
:100230009D8F8C8F0FC080E991E09F8F8E8F8E8D68
:100240009F8D0197F1F79F8F8E8F8C8D9D8D0197DC
:100250009D8F8C8F8C8D9D8D892B69F73FC0688D0C
:10026000798D8A8D9B8D0E940C03DC01CB019D8FC3
:100270008C8F8C8D9D8D99A388A388A199A10197BE
:10028000F1F799A388A32AC020E030E04FE753E4B8
:100290006B857C858D859E850E94ED031816ACF4D8
:1002A0006F85788989899A890E940C03DC01CB01CA
:1002B0009BA38AA38AA19BA19DA38CA38CA19DA192
:1002C0000197F1F79DA38CA30FC06B857C858D856D
:1002D0009E850E940C03DC01CB018B8B8B898EA346
:1002E0008EA18A95F1F78EA382E390E022E330E0BD
:1002F000F90120812D7FFC01208380916000909185
:1003000061002AE330E0B9010E946D02CB019A83BB
:10031000898389819A81181619060CF0EDCE88E33D
:1003200090E028E330E0F90120812068FC0120837F
:100330008091660090916700CC01A0E0B0E0BC0124
:10034000CD010E943B03DC01CB018B839C83AD83F9
:10035000BE8320E030E04AE755E46B817C818D81EB
:100360009E810E94F203DC01CB018FA398A7A9A76D
:10037000BAA720E030E040E85FE36FA178A589A547
:100380009AA50E94950288232CF481E090E09CA716
:100390008BA73FC020E03FEF4FE757E46FA178A560
:1003A00089A59AA50E94ED0318164CF520E030E0CF
:1003B00040E251E46B817C818D819E810E94F20339
:1003C000DC01CB01BC01CD010E940C03DC01CB019F
:1003D0009CA78BA70FC080E991E09EA78DA78DA554
:1003E0009EA50197F1F79EA78DA78BA59CA50197C8
:1003F0009CA78BA78BA59CA5892B69F714C06FA11F
:1004000078A589A59AA50E940C03DC01CB019CA7C5
:100410008BA78BA59CA598AB8FA78FA598A90197B3
:10042000F1F798AB8FA788E390E028E330E0F9017B
:1004300020812F77FC0120835FCE1F920F920090C6
:100440005F000F9211242F933F938F939F93EF930D
:10045000FF93CF93DF93CDB7DEB780916200909189
:1004600063000197B1F48EE490E0FC0110828CE40B
:1004700090E0FC0180819181909361008093600005
:100480008CE490E0FC0111821082109263001092C3
:1004900062008091620090916300892B79F48EE470
:1004A00090E02EE430E0F90120812160FC012083FE
:1004B00081E090E090936300809362000000DF9100
:1004C000CF91FF91EF919F918F913F912F910F903D
:1004D00000925F000F901F90189597FB072E16F45F
:1004E000009407D077FD09D00E94810207FC05D057
:1004F0003EF4909581959F4F0895709561957F4F3B
:100500000895AA1BBB1B51E107C0AA1FBB1FA6175A
:10051000B70710F0A61BB70B881F991F5A95A9F7AC
:1005200080959095BC01CD0108950E94780308F450
:1005300081E008950E94AE020C94B3030E94AC03C4
:1005400058F00E94A50340F029F45F3F29F00C9475
:100550009C0351110C94E7030C94A2030E94C40362
:1005600068F39923B1F3552391F3951B550BBB27E2
:10057000AA2762177307840738F09F5F5F4F220F27
:10058000331F441FAA1FA9F335D00E2E3AF0E0E81E
:1005900032D091505040E695001CCAF72BD0FE2F68
:1005A00029D0660F771F881FBB1F261737074807FC
:1005B000AB07B0E809F0BB0B802DBF01FF279358B4
:1005C0005F4F3AF09E3F510578F00C949C030C94D9
:1005D000E7035F3FE4F3983ED4F3869577956795FC
:1005E000B795F7959F5FC9F7880F911D96958795E9
:1005F00097F90895E1E0660F771F881FBB1F621708
:1006000073078407BA0720F0621B730B840BBA0BC5
:10061000EE1F88F7E09508950E94CC0388F09F575D
:1006200098F0B92F9927B751B0F0E1F0660F771F16
:10063000881F991F1AF0BA95C9F714C0B13091F00C
:100640000E94E603B1E008950C94E603672F782F2B
:100650008827B85F39F0B93FCCF3869577956795D1
:10066000B395D9F73EF490958095709561957F4F3D
:100670008F4F9F4F0895E89409C097FB3EF49095E3
:100680008095709561957F4F8F4F9F4F9923A9F06B
:10069000F92F96E9BB279395F695879577956795FA
:1006A000B795F111F8CFFAF4BB0F11F460FF1BC03E
:1006B0006F5F7F4F8F4F9F4F16C0882311F096E9D1
:1006C00011C0772321F09EE8872F762F05C066237F
:1006D00071F096E8862F70E060E02AF09A95660F38
:1006E000771F881FDAF7880F9695879597F90895F1
:1006F000990F0008550FAA0BE0E8FEEF1616170633
:10070000E807F907C0F012161306E407F50798F09A
:10071000621B730B840B950B39F40A2661F0232BB3
:10072000242B252B21F408950A2609F4A140A6952F
:100730008FEF811D811D089597F99F6780E870E014
:1007400060E008959FEF80EC089500240A94161647
:10075000170618060906089500240A9412161306AF
:10076000140605060895092E0394000C11F488233D
:1007700052F0BB0F40F4BF2B11F460FF04C06F5F59
:100780007F4F8F4F9F4F089557FD9058440F551F2F
:1007900059F05F3F71F04795880F97FB991F61F003
:1007A0009F3F79F087950895121613061406551F7A
:1007B000F2CF4695F1DF08C0161617061806991FE6
:1007C000F1CF86957105610508940895E894BB27DB
:1007D00066277727CB0197F908950E94780308F4DC
:1007E0008FEF08950E9405040C94B3030E94A503A3
:1007F00038F00E94AC0320F0952311F00C949C0378
:100800000C94A20311240C94E7030E94C40370F318
:10081000959FC1F3950F50E0551F629FF001729FA5
:10082000BB27F00DB11D639FAA27F00DB11DAA1FB4
:10083000649F6627B00DA11D661F829F2227B00D01
:10084000A11D621F739FB00DA11D621F839FA00D8C
:10085000611D221F749F3327A00D611D231F849FDC
:10086000600D211D822F762F6A2F11249F57504033
:100870009AF0F1F088234AF0EE0FFF1FBB1F661FAE
:10088000771F881F91505040A9F79E3F510580F077
:100890000C949C030C94E7035F3FE4F3983ED4F37D
:1008A000869577956795B795F795E7959F5FC1F71B
:1008B000FE2B880F911D9695879597F90895F894CA
:0208C000FFCF68
:00000001FF
