:100000000C942A000C943C000C9470000C943C005E
:100010000C943C000C943C000C943C000C943C0070
:100020000C943C000C943E000C943C000C943C005E
:100030000C943C000C943C000C943C000C943C0050
:100040000C943C000C943C000C943C000C943C0040
:100050000C943C0011241FBECFE5D4E0DEBFCDBF21
:1000600020E0A0E6B0E001C01D92A936B207E1F79A
:100070000E94CC000C94AC060C9400001F920F92CE
:1000800000905F000F9211248F939F93CF93DF9383
:10009000CDB7DEB7809165008130B9F48091610001
:1000A000909162000196909362008093610080912C
:1000B0006100909162008C35910538F010926000DB
:1000C0001092650081E0809366000000DF91CF917F
:1000D0009F918F910F9000925F000F901F90189545
:1000E0001F920F9200905F000F9211242F933F9365
:1000F0006F937F938F939F93AF93BF93EF93FF93F0
:10010000CF93DF93CDB7DEB780916000813089F562
:1001100080916500882361F481E08093650082E529
:1001200090E0FC011082109262001092610021C0E8
:10013000109265008091610090916200382F222713
:1001400082E590E0FC018081882F90E0820F931F70
:100150009C01AFE9B6E40E94D304929582958F701A
:1001600089279F7089279093680080936700109279
:1001700060000000DF91CF91FF91EF91BF91AF91AF
:100180009F918F917F916F913F912F910F9000924E
:100190005F000F901F901895CF93DF93CDB7DEB718
:1001A0002E970FB6F894DEBF0FBECDBF0E949B0402
:1001B0000E94B5048AE390E02FEFFC01208387E3DF
:1001C00090E02FEFFC01208381E390E021E330E019
:1001D000F9012081277FFC01208381E390E021E366
:1001E00030E0F90120812061FC01208378940E9495
:1001F000A50180916700909168000A97C4F786E195
:1002000090E0909364008093630088E390E028E39B
:1002100030E0F90120812068FC0120838BE390E02D
:100220002BE330E0F90120812160FC0120838091E3
:10023000630090916400CC01A0E0B0E0BC01CD016E
:100240000E948805DC01CB0189839A83AB83BC8340
:1002500020E030E04AE755E469817A818B819C8116
:100260000E943F06DC01CB018D839E83AF83B8875C
:1002700020E030E040E85FE36D817E818F819885EA
:100280000E94E20488232CF481E090E09A87898719
:100290003FC020E03FEF4FE757E46D817E818F81C3
:1002A00098850E943A0618164CF520E030E040E2AE
:1002B00051E469817A818B819C810E943F06DC0137
:1002C000CB01BC01CD010E945905DC01CB019A870D
:1002D00089870FC080E991E09C878B878B859C85FF
:1002E0000197F1F79C878B8789859A8501979A8773
:1002F000898789859A85892B69F714C06D817E81EC
:100300008F8198850E945905DC01CB019A878987E6
:1003100089859A859E878D878D859E850197F1F7C2
:100320009E878D8788E390E028E330E0F901208103
:100330002F77FC0120838BE390E02BE330E0F90181
:1003400020812E7FFC01208352CF0F931F93CF93E8
:10035000DF93CDB7DEB7CE54D1090FB6F894DEBF28
:100360000FBECDBF80916000882309F0D7C280E026
:1003700090E0A8E4B2E489839A83AB83BC838E01C6
:100380000B5B1F4F20E030E04AE755E469817A813A
:100390008B819C810E943F06DC01CB01F8018083A8
:1003A0009183A283B383CE018B5B9F4F20E030E02B
:1003B00040E85FE3FC0160817181828193810E944A
:1003C000E20488234CF4CE01875B9F4F21E030E0AC
:1003D000FC013183208369C0CE018B5B9F4F20E0FD
:1003E0003FEF4FE757E4FC01608171818281938187
:1003F0000E943A0618160CF046C020E030E040E2B9
:1004000051E469817A818B819C810E943F06DC01E5
:10041000CB018E01075B1F4FBC01CD010E94590526
:10042000DC01CB01F8019183808324C0CE01855B80
:100430009F4F20E931E0FC0131832083CE01855BB1
:100440009F4FFC01808191810197F1F79E01255B0F
:100450003F4FF90191838083CE01875B9F4F9E01BF
:10046000275B3F4FF9012081318121503109FC0187
:1004700031832083CE01875B9F4FFC018081918176
:10048000892BA1F62CC08E01075B1F4FCE018B5B21
:100490009F4FFC0160817181828193810E94590587
:1004A000DC01CB01F80191838083CE01835B9F4FF8
:1004B0009E01275B3F4FF90120813181FC0131838F
:1004C0002083CE01835B9F4FFC0180819181019746
:1004D000F1F79E01235B3F4FF9019183808382E313
:1004E00090E022E330E0F90120812F7EFC0120839F
:1004F00080E090E0A0E8BFE38D839E83AF83B88760
:100500002BEA3AEA4AEA50E46D817E818F81988530
:100510000E943F06DC01CB0189A79AA7ABA7BCA725
:1005200020E030E040E850E46D817E818F81988545
:100530000E943F06DC01CB018DA79EA7AFA7B8ABF9
:1005400020E030E040E85FE369A57AA58BA59CA593
:100550000E94E20488231CF481E089ABC6C020E03D
:100560003FEF4FE757E46DA57EA58FA598A90E94A0
:100570003A0618160CF07BC020E030E04AE754E45D
:100580006D817E818F8198850E94E704DC01CB011B
:100590008AAB9BABACABBDAB20E030E04AE755E4A7
:1005A0006AA97BA98CA99DA90E943F06DC01CB0109
:1005B0008EAB9FABA8AFB9AF20E030E040E85FE37F
:1005C0006EA97FA988AD99AD0E94E20488232CF41E
:1005D00081E090E09BAF8AAF3FC020E03FEF4FE764
:1005E00057E46EA97FA988AD99AD0E943A06181606
:1005F0004CF520E030E040E251E46AA97BA98CA9E7
:100600009DA90E943F06DC01CB01BC01CD010E94E7
:100610005905DC01CB019BAF8AAF0FC080E991E0A7
:100620009DAF8CAF8CAD9DAD0197F1F79DAF8CAFB9
:100630008AAD9BAD01979BAF8AAF8AAD9BAD892BED
:1006400069F753C06EA97FA988AD99AD0E9459057D
:10065000DC01CB019BAF8AAF8AAD9BAD9FAF8EAF64
:100660008EAD9FAD0197F1F79FAF8EAF3EC020E0FA
:1006700030E04FE753E469A57AA58BA59CA50E94BD
:100680003A0618164CF58E01005C1F4F6DA57EA52D
:100690008FA598A90E945905DC01CB01F80191832F
:1006A0008083CE018E5B9F4F9E01205C3F4FF901FE
:1006B00020813181FC0131832083CE018E5B9F4FED
:1006C000FC01808191810197F1F79E012E5B3F4FE4
:1006D000F901918380831CC069A57AA58BA59CA58F
:1006E0000E945905DC01CB0189ABCE018C5B9F4F89
:1006F00029A9FC012083CE018C5B9F4FFC018081E6
:10070000282F2A95F1F7CE018C5B9F4FFC012083A7
:1007100082E390E022E330E0F90120812061FC01D6
:10072000208380E090E0A0E2B1E489879A87AB87DC
:10073000BC872BEA3AEA4AEA50E469857A858B85D8
:100740009C850E943F06DC01CB018D879E87AF8789
:10075000B88B20E030E040E850E469857A858B85ED
:100760009C850E943F06DC01CB01898B9A8BAB8B69
:10077000BC8B20E030E040E85FE36D857E858F85AF
:1007800098890E94E20488231CF481E08D8BB2C01A
:1007900020E03FEF4FE757E469897A898B899C898C
:1007A0000E943A0618160CF07BC020E030E04AE7C1
:1007B00054E469857A858B859C850E94E704DC0179
:1007C000CB018E8B9F8BA88FB98F20E030E04AE75A
:1007D00055E46E897F89888D998D0E943F06DC01E2
:1007E000CB018A8F9B8FAC8FBD8F20E030E040E83B
:1007F0005FE36A8D7B8D8C8D9D8D0E94E204882342
:100800002CF481E090E09F8F8E8F3FC020E03FEF7F
:100810004FE757E46A8D7B8D8C8D9D8D0E943A0643
:1008200018164CF520E030E040E251E46E897F89F3
:10083000888D998D0E943F06DC01CB01BC01CD0162
:100840000E945905DC01CB019F8F8E8F0FC080E97C
:1008500091E099A388A388A199A10197F1F799A3A1
:1008600088A38E8D9F8D01979F8F8E8F8E8D9F8DEC
:10087000892B69F73FC06A8D7B8D8C8D9D8D0E9481
:100880005905DC01CB019F8F8E8F8E8D9F8D9BA391
:100890008AA38AA19BA10197F1F79BA38AA32AC0EF
:1008A00020E030E04FE753E46D857E858F859889A1
:1008B0000E943A061816ACF469897A898B899C895A
:1008C0000E945905DC01CB019DA38CA38CA19DA1A5
:1008D0009FA38EA38EA19FA10197F1F79FA38EA343
:1008E0000FC06D857E858F8598890E945905DC0132
:1008F000CB018D8B8D8988A788A58A95F1F788A76C
:1009000082E390E022E330E0F90120812F7EFC01B8
:10091000208381E080936000109266000000C25B3B
:10092000DF4F0FB6F894DEBF0FBECDBFDF91CF9182
:100930001F910F910895CF93DF93CDB7DEB785E573
:1009400090E025E530E0F90120812460FC0120835E
:100950008BE590E02BE530E0F90120812068FC0177
:1009600020830000DF91CF910895CF93DF93CDB71F
:10097000DEB783E590E023E530E0F90120812160D6
:10098000FC01208382E590E0FC01108289E590E083
:1009900029E530E0F90120812160FC01208300007D
:1009A000DF91CF910895A29FB001B39FC001A39F93
:1009B000700D811D1124911DB29F700D811D112498
:1009C000911D08950E94C50508F481E008950E94D4
:1009D000FB040C9400060E94F90558F00E94F205F1
:1009E00040F029F45F3F29F00C94E90551110C9473
:1009F00034060C94EF050E94110668F39923B1F3B5
:100A0000552391F3951B550BBB27AA276217730734
:100A1000840738F09F5F5F4F220F331F441FAA1FC8
:100A2000A9F335D00E2E3AF0E0E832D09150504084
:100A3000E695001CCAF72BD0FE2F29D0660F771F32
:100A4000881FBB1F261737074807AB07B0E809F018
:100A5000BB0B802DBF01FF2793585F4F3AF09E3F9D
:100A6000510578F00C94E9050C9434065F3FE4F3EB
:100A7000983ED4F3869577956795B795F7959F5FE0
:100A8000C9F7880F911D9695879597F90895E1E02C
:100A9000660F771F881FBB1F621773078407BA078B
:100AA00020F0621B730B840BBA0BEE1F88F7E095E6
:100AB00008950E94190688F09F5798F0B92F99273A
:100AC000B751B0F0E1F0660F771F881F991F1AF039
:100AD000BA95C9F714C0B13091F00E943306B1E065
:100AE00008950C943306672F782F8827B85F39F064
:100AF000B93FCCF3869577956795B395D9F73EF4D2
:100B000090958095709561957F4F8F4F9F4F089579
:100B1000E89409C097FB3EF4909580957095619597
:100B20007F4F8F4F9F4F9923A9F0F92F96E9BB274D
:100B30009395F695879577956795B795F111F8CFC9
:100B4000FAF4BB0F11F460FF1BC06F5F7F4F8F4F34
:100B50009F4F16C0882311F096E911C0772321F02A
:100B60009EE8872F762F05C0662371F096E8862FC2
:100B700070E060E02AF09A95660F771F881FDAF719
:100B8000880F9695879597F90895990F0008550F46
:100B9000AA0BE0E8FEEF16161706E807F907C0F003
:100BA00012161306E407F50798F0621B730B840B0B
:100BB000950B39F40A2661F0232B242B252B21F4E5
:100BC00008950A2609F4A140A6958FEF811D811D85
:100BD000089597F99F6780E870E060E008959FEFBF
:100BE00080EC089500240A941616170618060906C4
:100BF000089500240A941216130614060506089593
:100C0000092E0394000C11F4882352F0BB0F40F41A
:100C1000BF2B11F460FF04C06F5F7F4F8F4F9F4F5A
:100C2000089557FD9058440F551F59F05F3F71F0DC
:100C30004795880F97FB991F61F09F3F79F0879543
:100C40000895121613061406551FF2CF4695F1DFCC
:100C500008C0161617061806991FF1CF869571055C
:100C6000610508940895E894BB2766277727CB0190
:100C700097F908950E94C50508F48FEF08950E9422
:100C800052060C9400060E94F20538F00E94F90505
:100C900020F0952311F00C94E9050C94EF05112434
:100CA0000C9434060E94110670F3959FC1F3950FC2
:100CB00050E0551F629FF001729FBB27F00DB11DE0
:100CC000639FAA27F00DB11DAA1F649F6627B00D70
:100CD000A11D661F829F2227B00DA11D621F739F59
:100CE000B00DA11D621F839FA00D611D221F749F67
:100CF0003327A00D611D231F849F600D211D822FAE
:100D0000762F6A2F11249F5750409AF0F1F08823D4
:100D10004AF0EE0FFF1FBB1F661F771F881F915001
:100D20005040A9F79E3F510580F00C94E9050C94C2
:100D300034065F3FE4F3983ED4F386957795679544
:100D4000B795F795E7959F5FC1F7FE2B880F911D2B
:0C0D50009695879597F90895F894FFCFC9
:00000001FF
