:100000000C942A000C9447000C9447000C94470071
:100010000C9447000C9447000C9447000C94470044
:100020000C9447000C9447000C9447000C94470034
:100030000C9447000C9447000C9447000C94470024
:100040000C9447000C9447000C9447000C94470014
:100050000C94470011241FBECFE5D4E0DEBFCDBF16
:1000600010E0A0E6B0E0E6E2F7E002C005900D92F5
:10007000A037B107D9F720E0A0E7B0E001C01D929A
:10008000A237B207E1F70E9449000C9491030C9447
:100090000000CF93DF93CDB7DEB7AE970FB6F894DD
:1000A000DEBF0FBECDBF87E390E02FEFFC012083C2
:1000B00081E390E028E4FC0120831A821982A2C126
:1000C0001C821B8211C189819A81880F991F805AD5
:1000D0009F4FFC01808191819C01220F331F88EE8C
:1000E00093E0B9010E941102CB01909371008093BB
:1000F00070008091700090917100CC01A0E0B0E0A0
:10010000BC01CD010E946D02DC01CB0189879A8779
:10011000AB87BC8720E030E04AE754E469857A8504
:100120008B859C850E94FC02DC01CB018B8F9C8F10
:10013000AD8FBE8F20E030E040E85FE36B8D7C8DBB
:100140008D8D9E8D0E94390288232CF481E090E0F1
:1001500098A38F8F3FC020E03FEF4FE757E46B8DB0
:100160007C8D8D8D9E8D0E94F70218164CF520E037
:1001700030E040E251E469857A858B859C850E9458
:10018000FC02DC01CB01BC01CD010E943E02DC017E
:10019000CB0198A38F8F0FC084E690E09AA389A328
:1001A00089A19AA10197F1F79AA389A38F8D98A1AC
:1001B000019798A38F8F8F8D98A1892B69F714C011
:1001C0006B8D7C8D8D8D9E8D0E943E02DC01CB015E
:1001D00098A38F8F8F8D98A19CA38BA38BA19CA19B
:1001E0000197F1F79CA38BA380917000909171000F
:1001F000CC01A0E0B0E0BC01CD010E946D02DC01A9
:10020000CB018D879E87AF87B88B20E030E04AE72F
:1002100054E46D857E858F8598890E94FC02DC01FF
:10022000CB01898B9A8BAB8BBC8B20E030E040E814
:100230005FE369897A898B899C890E9439028823C6
:100240002CF481E090E09E8B8D8B3FC020E03FEF4F
:100250004FE757E469897A898B899C890E94F70264
:1002600018164CF520E030E040E251E46D857E85C3
:100270008F8598890E94FC02DC01CB01BC01CD0175
:100280000E943E02DC01CB019E8B8D8B0FC084E669
:1002900090E0988F8F8B8F89988D0197F1F7988FC9
:1002A0008F8B8D899E8901979E8B8D8B8D899E89E1
:1002B000892B69F714C069897A898B899C890E9486
:1002C0003E02DC01CB019E8B8D8B8D899E899A8F9E
:1002D000898F898D9A8D0197F1F79A8F898F8B81FC
:1002E0009C8101969C838B838B819C8144970CF429
:1002F000EACE88E390E028E330E0F901208120682D
:10030000FC01208380E090E0AAE7B4E48D839E8323
:10031000AF83B88720E030E04AE754E46D817E8106
:100320008F8198850E94FC02DC01CB018DA39EA3E6
:10033000AFA3B8A720E030E040E85FE36DA17EA165
:100340008FA198A50E94390288232CF481E090E0C7
:100350009AA789A73FC020E03FEF4FE757E46DA180
:100360007EA18FA198A50E94F70218164CF520E0F7
:1003700030E040E251E46D817E818F8198850E945A
:10038000FC02DC01CB01BC01CD010E943E02DC017C
:10039000CB019AA789A70FC084E690E09CA78BA702
:1003A0008BA59CA50197F1F79CA78BA789A59AA57A
:1003B00001979AA789A789A59AA5892B69F714C0DF
:1003C0006DA17EA18FA198A50E943E02DC01CB0108
:1003D0009AA789A789A59AA59EA78DA78DA59EA551
:1003E0000197F1F79EA78DA788E390E028E330E01E
:1003F000F90120812F77FC01208389819A81019660
:100400009A83898389819A8108970CF459CE0000D8
:10041000AE960FB6F894DEBF0FBECDBFDF91CF9181
:10042000089597FB072E16F4009407D077FD09D0A6
:100430000E94250207FC05D03EF4909581959F4FC0
:100440000895709561957F4F0895AA1BBB1B51E1DC
:1004500007C0AA1FBB1FA617B70710F0A61BB70B34
:10046000881F991F5A95A9F780959095BC01CD01D9
:1004700008950E94AA0208F481E008950E94D6021D
:1004800088F09F5798F0B92F9927B751B0F0E1F055
:10049000660F771F881F991F1AF0BA95C9F714C005
:1004A000B13091F00E94F002B1E008950C94F00296
:1004B000672F782F8827B85F39F0B93FCCF386953E
:1004C00077956795B395D9F73EF49095809570959B
:1004D00061957F4F8F4F9F4F0895E89409C097FB18
:1004E0003EF490958095709561957F4F8F4F9F4F0B
:1004F0009923A9F0F92F96E9BB279395F69587954F
:1005000077956795B795F111F8CFFAF4BB0F11F411
:1005100060FF1BC06F5F7F4F8F4F9F4F16C08823B8
:1005200011F096E911C0772321F09EE8872F762FEE
:1005300005C0662371F096E8862F70E060E02AF02F
:100540009A95660F771F881FDAF7880F969587951B
:1005500097F90895990F0008550FAA0BE0E8FEEFF0
:1005600016161706E807F907C0F012161306E40777
:10057000F50798F0621B730B840B950B39F40A2670
:1005800061F0232B242B252B21F408950A2609F44E
:10059000A140A6958FEF811D811D089557FD9058AC
:1005A000440F551F59F05F3F71F04795880F97FB37
:1005B000991F61F09F3F79F08795089512161306F1
:1005C0001406551FF2CF4695F1DF08C01616170620
:1005D0001806991FF1CF8695710561050894089555
:1005E000E894BB2766277727CB0197F908950E94E7
:1005F000AA0208F48FEF08950E940F030C94800361
:100600000E94720338F00E94790320F0952311F0C4
:100610000C9469030C946F0311240C94F1020E9452
:10062000CE0270F3959FC1F3950F50E0551F629F66
:10063000F001729FBB27F00DB11D639FAA27F00D3B
:10064000B11DAA1F649F6627B00DA11D661F829F62
:100650002227B00DA11D621F739FB00DA11D621F47
:10066000839FA00D611D221F749F3327A00D611D64
:10067000231F849F600D211D822F762F6A2F112446
:100680009F5750409AF0F1F088234AF0EE0FFF1F79
:10069000BB1F661F771F881F91505040A9F79E3FD0
:1006A000510580F00C9469030C94F1025F3FE4F370
:1006B000983ED4F3869577956795B795F795E79526
:1006C0009F5FC1F7FE2B880F911D9695879597F92F
:1006D000089597F99F6780E870E060E008959FEFC4
:1006E00080EC089500240A941616170618060906C9
:1006F000089500240A941216130614060506089598
:10070000092E0394000C11F4882352F0BB0F40F41F
:10071000BF2B11F460FF04C06F5F7F4F8F4F9F4F5F
:060720000895F894FFCFDC
:10072600160037006E00DC00B8017003E006C00D4D
:00000001FF
