:100000000C942A000C943C000C943C000C943C0092
:100010000C943C000C943C000C943C000C943C0070
:100020000C943C000C945F000C943C000C943C003D
:100030000C943C000C943C000C943C000C943C0050
:100040000C943C000C943C000C943C000C943C0040
:100050000C943C0011241FBECFE5D4E0DEBFCDBF21
:1000600020E0A0E6B0E001C01D92A136B207E1F7A2
:100070000E9479000C9482020C940000CF93DF93CD
:10008000CDB7DEB783E590E023E530E0F9012081CC
:100090002460FC01208382E590E0FC01108289E568
:1000A00090E029E530E0F90120812160FC01208306
:1000B0007894109260000000DF91CF9108951F9214
:1000C0000F9200905F000F9211248F93CF93DF93D4
:1000D000CDB7DEB7809160008F5F80936000000035
:1000E000DF91CF918F910F9000925F000F901F9042
:1000F0001895CF93DF93CDB7DEB72E970FB6F89450
:10010000DEBF0FBECDBF8AE390E020ECFC01208370
:1001100081E390E02FEFFC0120830E943E0089E301
:1001200090E0FC018081882F90E080729927892BD4
:10013000E1F08BE390E02BE330E0F90120812064D3
:10014000FC0120838BE390E02BE330E0F901208178
:100150002F77FC01208382E390E022E330E0F90175
:1001600020812068FC0120831BC08BE390E02BE3FF
:1001700030E0F90120812F7BFC0120838BE390E0AC
:100180002BE330E0F90120812068FC01208382E329
:1001900090E022E330E0F90120812F77FC012083F9
:1001A00080916000843608F4BACF82E590E0FC01CB
:1001B0008081863308F4B3CF8BE390E02BE330E00B
:1001C000F90120812064FC01208380E090E0A8EC0C
:1001D000B2E489839A83AB83BC8320E030E04AE7B2
:1001E00055E469817A818B819C810E94ED01DC015B
:1001F000CB018D839E83AF83B88720E030E040E859
:100200005FE36D817E818F8198850E9467018823DD
:100210002CF481E090E09A8789873FC020E03FEF8F
:100220004FE757E46D817E818F8198850E94E801B8
:1002300018164CF520E030E040E251E469817A8103
:100240008B819C810E94ED01DC01CB01BC01CD01C1
:100250000E946C01DC01CB019A8789870FC080E97D
:1002600091E09C878B878B859C850197F1F79C8714
:100270008B8789859A8501979A87898789859A8549
:10028000892B69F714C06D817E818F8198850E94CA
:100290006C01DC01CB019A87898789859A859E87C5
:1002A0008D878D859E850197F1F79E878D878BE3DE
:1002B00090E02BE330E0F90120812F7BFC012083CB
:1002C00082E590E0FC0110821092600028CF0E942D
:1002D0009B0108F481E008950E94C70188F09F57B0
:1002E00098F0B92F9927B751B0F0E1F0660F771F5A
:1002F000881F991F1AF0BA95C9F714C0B13091F050
:100300000E94E101B1E008950C94E101672F782F7C
:100310008827B85F39F0B93FCCF386957795679514
:10032000B395D9F73EF490958095709561957F4F80
:100330008F4F9F4F0895990F0008550FAA0BE0E8C3
:10034000FEEF16161706E807F907C0F01216130697
:10035000E407F50798F0621B730B840B950B39F4D7
:100360000A2661F0232B242B252B21F408950A263D
:1003700009F4A140A6958FEF811D811D089557FDB9
:100380009058440F551F59F05F3F71F04795880F03
:1003900097FB991F61F09F3F79F08795089512169A
:1003A00013061406551FF2CF4695F1DF08C0161646
:1003B00017061806991FF1CF8695710561050894F7
:1003C0000895E894BB2766277727CB0197F908950E
:1003D0000E949B0108F48FEF08950E9400020C9484
:1003E00071020E94630238F00E946A0220F0952395
:1003F00011F00C945A020C94600211240C94E20146
:100400000E94BF0170F3959FC1F3950F50E0551FF7
:10041000629FF001729FBB27F00DB11D639FAA2759
:10042000F00DB11DAA1F649F6627B00DA11D661FA8
:10043000829F2227B00DA11D621F739FB00DA11DC9
:10044000621F839FA00D611D221F749F3327A00D83
:10045000611D231F849F600D211D822F762F6A2F1F
:1004600011249F5750409AF0F1F088234AF0EE0F84
:10047000FF1FBB1F661F771F881F91505040A9F7B1
:100480009E3F510580F00C945A020C94E2015F3FAC
:10049000E4F3983ED4F3869577956795B795F795ED
:1004A000E7959F5FC1F7FE2B880F911D9695879565
:1004B00097F9089597F99F6780E870E060E00895E4
:1004C0009FEF80EC089500240A941616170618066C
:1004D0000906089500240A94121613061406050648
:1004E0000895092E0394000C11F4882352F0BB0FD9
:1004F00040F4BF2B11F460FF04C06F5F7F4F8F4F3C
:080500009F4F0895F894FFCF0E
:00000001FF
