:100000000C942A000C9434000C9434000C943400AA
:100010000C9434000C9434000C9434000C94340090
:100020000C9434000C9434000C9434000C94340080
:100030000C9434000C9434000C9434000C94340070
:100040000C9434000C9434000C9434000C94340060
:100050000C94340011241FBECFE5D4E0DEBFCDBF29
:100060000E946E000C94B0000C940000CF93DF93BC
:10007000CDB7DEB728970FB6F894DEBF0FBECDBF61
:100080001A8219821DC01C821B828B819C81019760
:10009000F1F79C838B831E821D828D819E81019747
:1000A000F1F79E838D8318861F828F819885019733
:1000B000F1F798878F8389819A8101969A83898342
:1000C00089819A81C297F8F2000028960FB6F894B9
:1000D000DEBF0FBECDBFDF91CF910895CF93DF93E9
:1000E000CDB7DEB78FE490E02FE430E0F901208156
:1000F000226AFC0120838EE490E02EE430E0F901D6
:1001000020812B61FC01208386E490E027E833E125
:10011000FC013183208381E390E021E330E0F901A9
:1001200020812068FC0120838AE490E02CE331E008
:10013000FC01318320830E9436008AE490E021E6AE
:1001400030E0FC01318320830E9436008AE490E095
:1001500027E132E0FC01318320830E943600E4CFA6
:04016000F894FFCF41
:00000001FF
