:100000000C942A000C943C000C943C000C943C0092
:100010000C943C000C943C000C943C000C943C0070
:100020000C943C000C943C000C943C000C943C0060
:100030000C943C000C943C000C943C000C943C0050
:100040000C943C000C943C000C943C000C943C0040
:100050000C943C0011241FBECFE5D4E0DEBFCDBF21
:1000600020E0A0E6B0E001C01D92A436B207E1F79F
:100070000E943E000C94D1020C940000CF93DF93B9
:10008000CDB7DEB76C970FB6F894DEBF0FBECDBF0D
:100090008AE390E02FEFFC01208387E390E02FEFCD
:1000A000FC01208388EE93E09093630080936200CC
:1000B00084E690E0909361008093600080916000FE
:1000C00090916100CC01A0E0B0E0BC01CD010E94A4
:1000D000AD01DC01CB0189839A83AB83BC8320E033
:1000E00030E04AE755E469817A818B819C810E94E6
:1000F0003C02DC01CB018B8B9C8BAD8BBE8B20E05B
:1001000030E040E85FE36B897C898D899E890E949D
:10011000790188232CF481E090E0988F8F8B3FC089
:1001200020E03FEF4FE757E46B897C898D899E89FA
:100130000E94370218164CF520E030E040E251E40E
:1001400069817A818B819C810E943C02DC01CB0118
:10015000BC01CD010E947E01DC01CB01988F8F8B09
:100160000FC080E991E09A8F898F898D9A8D0197D0
:10017000F1F79A8F898F8F89988D0197988F8F8B40
:100180008F89988D892B69F714C06B897C898D893B
:100190009E890E947E01DC01CB01988F8F8B8F8915
:1001A000988D9C8F8B8F8B8D9C8D0197F1F79C8FF9
:1001B0008B8F8BE390E02BE330E0F901208121600D
:1001C000FC01208388E390E028E330E0F9012081FE
:1001D0002068FC0120838091620090916300CC0133
:1001E000A0E0B0E0BC01CD010E94AD01DC01CB017B
:1001F0008D839E83AF83B88720E030E04AE755E4E3
:100200006D817E818F8198850E943C02DC01CB014B
:1002100089879A87AB87BC8720E030E040E85FE3BE
:1002200069857A858B859C850E94790188232CF4C9
:1002300081E090E09E878D873FC020E03FEF4FE751
:1002400057E469857A858B859C850E94370218164C
:100250004CF520E030E040E251E46D817E818F81F9
:1002600098850E943C02DC01CB01BC01CD010E94BB
:100270007E01DC01CB019E878D870FC080E991E074
:10028000988B8F878F8598890197F1F7988B8F8747
:100290008D859E8501979E878D878D859E85892B6F
:1002A00069F714C069857A858B859C850E947E01DB
:1002B000DC01CB019E878D878D859E859A8B898BEE
:1002C00089899A890197F1F79A8B898B8BE390E062
:1002D0002BE330E0F90120812E7FFC01208388E3AD
:1002E00090E028E330E0F90120812F77FC012083A2
:1002F000E5CE0E94EA0108F481E008950E9416020A
:1003000088F09F5798F0B92F9927B751B0F0E1F0D6
:10031000660F771F881F991F1AF0BA95C9F714C086
:10032000B13091F00E943002B1E008950C94300297
:10033000672F782F8827B85F39F0B93FCCF38695BF
:1003400077956795B395D9F73EF49095809570951C
:1003500061957F4F8F4F9F4F0895E89409C097FB99
:100360003EF490958095709561957F4F8F4F9F4F8C
:100370009923A9F0F92F96E9BB279395F6958795D0
:1003800077956795B795F111F8CFFAF4BB0F11F493
:1003900060FF1BC06F5F7F4F8F4F9F4F16C088233A
:1003A00011F096E911C0772321F09EE8872F762F70
:1003B00005C0662371F096E8862F70E060E02AF0B1
:1003C0009A95660F771F881FDAF7880F969587959D
:1003D00097F90895990F0008550FAA0BE0E8FEEF72
:1003E00016161706E807F907C0F012161306E407F9
:1003F000F50798F0621B730B840B950B39F40A26F2
:1004000061F0232B242B252B21F408950A2609F4CF
:10041000A140A6958FEF811D811D089557FD90582D
:10042000440F551F59F05F3F71F04795880F97FBB8
:10043000991F61F09F3F79F0879508951216130672
:100440001406551FF2CF4695F1DF08C016161706A1
:100450001806991FF1CF86957105610508940895D6
:10046000E894BB2766277727CB0197F908950E9468
:10047000EA0108F48FEF08950E944F020C94C00225
:100480000E94B20238F00E94B90220F0952311F0C8
:100490000C94A9020C94AF0211240C9431020E9416
:1004A0000E0270F3959FC1F3950F50E0551F629FA8
:1004B000F001729FBB27F00DB11D639FAA27F00DBD
:1004C000B11DAA1F649F6627B00DA11D661F829FE4
:1004D0002227B00DA11D621F739FB00DA11D621FC9
:1004E000839FA00D611D221F749F3327A00D611DE6
:1004F000231F849F600D211D822F762F6A2F1124C8
:100500009F5750409AF0F1F088234AF0EE0FFF1FFA
:10051000BB1F661F771F881F91505040A9F79E3F51
:10052000510580F00C94A9020C9431025F3FE4F372
:10053000983ED4F3869577956795B795F795E795A7
:100540009F5FC1F7FE2B880F911D9695879597F9B0
:10055000089597F99F6780E870E060E008959FEF45
:1005600080EC089500240A9416161706180609064A
:10057000089500240A941216130614060506089519
:10058000092E0394000C11F4882352F0BB0F40F4A1
:10059000BF2B11F460FF04C06F5F7F4F8F4F9F4FE1
:0605A0000895F894FFCF5E
:00000001FF
